:100000007047000010B504463021024B9847204647
:1000100010BD00BF000000000B4681681846014B70
:10002000184700BF0000000038B50446084D94F89A
:100030002C10286849080368DB6A98472868036819
:100040005B6B984710B994F82C0038BDFF20FCE793
:10005000000000002DE9F043072885B005461E4E3C
:1000600003911BDC1F23009300231C4864221946C4
:100070000078DFF874909DF80C709DF80D409DF8A5
:100080000E80C847240444EA0824C0B2044344EA6A
:10009000076406EB850544F0E004EC6031797E29C5
:1000A00016D80F4C002520680E4E0368DB6A98476F
:1000B000206816F8011F036801351B689847202D3A
:1000C000F6D1206803685B6B05B0BDE8F0431847C4
:1000D00005B0BDE8F08300BF000000000000000094
:1000E000000000000B000000000000000020F8B538
:1000F000204C214E214F012800F101050CDC204A43
:100100005178137843EA0123917843EA0141A047EB
:100110001920B0472846EEE7831E012B01D8194A63
:10012000EEE7031F012B1ED8174A5178137843EAD4
:100130000123917843EA0141A0471920B047082DD7
:100140002846D8D10025114F7A783B78B97843EA10
:100150000223284643EA0141A04701351920B04750
:10016000082DF1D1F8BD3B787A78B97843EA0223BB
:10017000E0E700BF000000000000000000000000F9
:10018000000000000000000000000000000000006F
:1001900008B5FF230A48202203710A4BE02183603F
:1001A000094B0C3040F80C3C6C2380F82030074B96
:1001B00098470022064B1A705A709A7008BD00BF0B
:1001C0000000000000000000080000000000000027
:1001D0000000000010B50B480B4C0C4B20609847FA
:1001E00020680B4903680B4C9B6A98470A4B984759
:1001F00023797E2B04D92046084B9847400820716C
:1002000010BD00BF00000000000000000000000062
:10021000A0860100000000000000000000000000B7
:10022000014B024A1A607047000000000000000005
:10023000024B034A1A6000221A7170470000000046
:10024000000000006A21064B064A197206491A602E
:10025000596100224FF480715A6019839A76704771
:10026000000000000000000000093D007047000091
:10027000FF2300220A494A708A700B7009490A70EC
:100280004A708B7008490A708A704B7007494A702F
:10029000074A0B708B70137053709370704700BFD8
:1002A000000000000000000000000000000000004E
:1002B00000000000002070470368C9B21B6818479F
:1002C0007047036801211B6B184710B403689C6BCF
:1002D0000123A4465DF8044B6047B0F83A31B0F80A
:1002E0003E21981A80B27047C0F850127047C0F88B
:1002F0004C12704707B5054B8DF8071001220DF120
:1003000007012030984703B05DF804FB00000000AF
:10031000014B2030184700BF0000000007B5084B14
:1003200001220DF1070100F59A70984720B19DF860
:10033000070003B05DF804FB4FF0FF30F9E700BFA2
:100340000000000008B5FF2301220B701030024BA3
:100350009847002008BD00BF0000000007B5084B0B
:1003600001220DF1070100F59A70984720B19DF820
:10037000070003B05DF804FB4FF0FF30F9E700BF62
:100380000000000038B5C38A044663B1D0F84802C3
:1003900004F1100583681B690BB1294698470023B7
:1003A00023616B60AB6038BD0346064AC18282613F
:1003B000D0F8480203F110018368DB6803B11847E5
:1003C000704700BF040000000B4B99420FD00B4B4D
:1003D00099420ED00A4B994214BF01210321D0F853
:1003E0004802836849001B6841F010011847012149
:1003F000F5E70221F3E700BFA0860100801A06009E
:1004000040420F000023F0B585B0428D0093C38CAD
:1004100000F12A079B1A026B9BB2934200F120065F
:10042000044628BF134639466A463046104DA84751
:100430000546009AD4F84802CDE901250222A38B93
:100440008DF80C209DF80C20816842F002028DF896
:100450000C208C68012201A9A04704462A4639468F
:100460003046044B9847201E18BF012005B0F0BD50
:1004700000000000000000002DE9F04300230546C5
:1004800085B0009300F59A76B5F8403100F59C7779
:10049000B0F838018846C01AD5F8441180B20B1A5A
:1004A000934228BF1346184C6A4639463046A04747
:1004B000DFF85890044640B9224639463046C847CE
:1004C0000024204605B0BDE8F083009B002BF3D04C
:1004D000CDE901340323D5F848028DF80C309DF89E
:1004E0000C30826843F002038DF80C30956801A946
:1004F00001224346A8470546224639463046C847AA
:10050000002DDED0DCE700BF00000000000000008E
:1005100003460020C3E94A00C3F8300170470023B6
:10052000C161C0E90933C0E94E33C362C0F840314C
:1005300070470000002230B54FF47A74C0E90124FE
:1005400004460E4D44F8105B0261C4E90122C0E983
:10055000921200F13401C0E908124FF4807100F5E5
:10056000A474C0E90A22C0E94D42C0E94F22C0F894
:1005700050220163C0F8441130BD00BF08000000E4
:1005800013B5D0F8503204468DF807205BB1B4F8AB
:100590003E21B0F83A01801A80B2D4F84421411CBF
:1005A000914200D998470122054B0DF1070104F54E
:1005B0009A709847B0FA80F04009404202B010BDEE
:1005C000000000000A46024B01461038184700BFE1
:1005D0000000000038B514460022D0F84C32C0E9C3
:1005E000092200F12005C26203B19847FF230122CE
:1005F000237021462846024B9847002038BD00BF93
:10060000000000000A46024B01461038184700BFA0
:100610000000000008B5D0F850223AB1B0F83A31E5
:10062000B0F83E11581A80B200B19047002008BDC2
:100630000146014B103818470000000010B504496E
:100640000448054B9847BDE8104004490448184742
:10065000000000000000000000000000000000009A
:10066000000000007047704770470000F7B502AB0C
:1006700003E906009DF806400546631E5C425C41A6
:100680009DF805300E460BB944F010049DF8043077
:10069000022B1ED0032B1FD0012B01D144F00404E8
:1006A0000E220F4FA8180021A4B2B84744F480735B
:1006B000AB810C4B0E229E4238BF1E460021AE601D
:1006C00005F12200B84744F400742C84EE6103B0B5
:1006D000F0BD44F00204E3E744F00604E0E700BFA5
:1006E0000000000040420F0010B504464FF4A67110
:1006F000014B9847204610BD0000000001464068AD
:10070000836808319B68184710B50C4619460123C9
:1007100088B00393079304ABCDE90042CDE90442CE
:100720004068CDF808D00693836802AA1C6806AB1F
:10073000A04708B010BD000013B501228DF80710C6
:10074000064C00F108030DF10701A0470028B4BFD3
:1007500000209DF8070002B010BD00BF000000009F
:1007600013B50222ADF80610064C00F11C030DF182
:100770000601A0470028B4BF0020BDF8060002B063
:1007800010BD00BF0000000010B4034C00F10803CE
:10079000A4465DF8044B604700000000074B084A80
:1007A00008495A6000221960C3F84821064B1960B5
:1007B0000649C3F848215960704700BF0000000097
:1007C0000000000008000000000000000000000021
:1007D00010B5441A0298521AC01A444394FBF2F41A
:1007E000E01810BD70B505460C46084649B1054BEA
:1007F00098472B68024621462846BDE870405B6852
:10080000184770BD0000000008B5014B984708BDAF
:10081000000000007047704738B5054B9847054BFE
:100820009847054B9847054D054CA847A047FCE75E
:1008300000000000000000000000000000000000B8
:1008400000000000004B1847000000002DE9F04FA9
:10085000154C164E164FDFF85C8089B02546B54220
:1008600004F1300402D309B0BDE8F08F14ED027B2F
:1008700054E90C0154E90A2354E908CE54E9069AD4
:1008800054F810BC8DED067BCDE903ABCDE901E951
:10089000CDF800C0B84754F8300C54F80C1CC047D1
:1008A00054F8303C5D65D9E700000000000000000E
:1008B00000000000000000000A21A0FB0101014B24
:0808C000184700BF0000000012
:1008C8004C454453000000000000000000000000F8
:1008D8000000000000000000000000000000000010
:1008E8000000000000000000000000000000000000
:1008F80000000000000000000000000000000000F0
:1009080000000000000000000000000000000000DF
:1009180000000000000000000000000000000000CF
:1009280000000000000000000000000000000000BF
:1009380000000000000000000000000000000000AF
:10094800000000000000000000000000000000009F
:10095800000000000000000000000000000000008F
:10096800000000000000000000000000000000007F
:1009780053797374656D204865617020656E643ABB
:100988002025700A0053797374656D20486561707D
:100998002073746172743A2025700A00536B657471
:1009A800636820486561702073746172743A202509
:1009B800702C2073697A652025700A006D61696E54
:0109C800002E
:1009CC001900000000000000000000000000000002
:0809DC00000000000000000013
:0811A000FC000000000000004B
:1011A8000000000000000000000000000000000037
:0C11B8000000000000000000000000002B
:0400000300000819D8
:00000001FF
