:100000002DE9F14FDFF88CB0DFF88CA01B4C9BF88A
:100010000000DFF888900121A047DFF884809AF87B
:1000200000000021A047164F99F800000121A047C9
:1000300098F800000021A047124E13493846B047F7
:10004000124D4FF4FA70A8479BF800000021A0471A
:100050009AF800000121A04799F800000021A0476C
:1000600098F800000121A04738460949B0474FF4ED
:10007000FA702B4601B0BDE8F04F184700000000B1
:100080000000000000000000000000000000000070
:100090000E00000000000000000000000000000052
:1000A0000000000010B540F213424FF416510B4807
:1000B0000B4B98470B4B0C4C18780121A0470B4B6E
:1000C00001211878A0470A4B01211878A047094B55
:1000D000012118782346BDE81040184700000000B1
:1000E0000000000000000000000000000000000010
:1000F000000000000000000070B505460C460846F0
:1001000049B1054B98472B68024621462846BDE871
:1001100070405B68184770BD0000000008B50249D8
:10012000024B984708BD00BF1D0000000000000002
:1001300038B5044B05469847034B04462846984774
:10014000204438BD0000000000000000004B1847AC
:10015000000000007047704738B5054B9847054BC5
:100160009847054B9847054D054CA847A047FCE725
:10017000000000000000000000000000000000007F
:10018000000000002DE9F0471B4C1C4D1C4F88B0AF
:100190002646AE4204F130040AD31A4B9847164C57
:1001A000194EAC4223D3194B08B0BDE8F0471847AD
:1001B00014ED027B54E90C0154E90A2354E908CEFA
:1001C00054E9068954F810AC8DED067BCDE9039A0D
:1001D000CDE901E8CDF800C0B84754F8300C54F828
:1001E0000C1C0B4B984754F8303C5E65D0E754F834
:1001F000300BB047D5E700BF000000000000000052
:1002000000000000000000000000000000000000EE
:100210000000000003460A4619790123006803FA2A
:1002200001F103691B68194203D022B183681B697D
:1002300003E0002AFAD08368DB681847034670B4ED
:100240000C46DA88006819792243012405698C403C
:100250002B6812F0010F866814BF2343A3432B6061
:10026000336870BC18470000004B184700000000BE
:10027000032911D8DFE801F0020D090B4FF480319A
:10028000064B03EBC000064B18470649F8E7064942
:10029000F6E74FF4C021F3E7704700BF7400000099
:1002A000000000001000010020000100024B03EBE1
:1002B000C000024B184700BF74000000000000009F
:1002C0000A21A0FB0101014B184700BF00000000FC
:1002D0008368DB6903B118477047036840F2134233
:1002E0001B6A1847704707B503688DF8071001228D
:1002F0005B680DF10701984703B05DF804FB01202E
:1003000070470000004B18470000000000490847F4
:100310000000000037B5044600F1D4054FF0FF326D
:100320004FF0FF3328460A4988470A4B04F1800002
:1003300001220DF1070198470446074B28469847CC
:100340001CB19DF8070003B030BD4FF0FF30FAE755
:1003500000000000000000000000000037B5044667
:1003600000F1D4054FF0FF324FF0FF3328460A4921
:1003700088470A4B04F1800001220DF107019847DC
:100380000446074B284698471CB19DF8070003B068
:1003900030BD4FF0FF30FAE7000000000000000021
:1003A0000000000038B5044600F1D40528460A498B
:1003B0004FF0FF324FF0FF338847B4F88C20B4F889
:1003C0008430D4F890409B1A9BB22846E41A034B21
:1003D0009847204638BD00BF000000000000000024
:1003E00070B5054600F1D4064FF0FF32304607499C
:1003F0004FF0FF338847B5F88A30B5F8864030466D
:10040000E41AA4B2024B9847204670BD00000000D9
:1004100000000000002337B58DF8073002F00F030D
:10042000012B0446009143D0991E4B424B418DF85D
:10043000043002F0F003202B3CD0302B0CBF032300
:10044000012302F47062B2F5007F8DF8053033D0DD
:10045000B2F5407F32D0B2F5807F0CBF002303237A
:1004600020698DF806308368DB680BB169469847D0
:100470002069836823B19B6C13B1224610499847C9
:1004800004F1D4054FF0FF3228460E494FF0FF33F8
:10049000884700232846C4E92133C4F88C300A4B2E
:1004A0009847206983689B6A03B1984703B030BDC1
:1004B0000223BCE70223C4E70123D1E70223CFE7ED
:1004C00000000000000000000000000038B50446F5
:1004D000084D628BE38B9A4207D1064D20698368F1
:1004E0001B6B0BB1984710B138BDA847F1E7A8477F
:1004F000F4E700BF000000002DE9F84F04468846ED
:1005000015460026DFF85890DFF858B004F1680768
:100510004FF0FF324FF0FF333846C847AA1B08EBB5
:1005200006010C4B04F11400984782463846D84720
:100530005644BAF1000F04D12069074B9847074B86
:100540009847B542E2D12069034B98472846BDE859
:10055000F88F00BF00000000000000000000000055
:1005600000000000000000002DE9F3470446006988
:1005700083685B6C43BB04F1D40600220023304641
:100580002F4DA8472F4F206983685B6B13BB2069F1
:1005900083689B6913BB304604F168072A4EB04755
:1005A000002200233846A847628BE38B9A4204D18D
:1005B000206983681B6A03B19847DFF89090DFF8E1
:1005C00090A004F114081BE098470028D3D102B092
:1005D000BDE8F08798470028D9D1DCE708226946B2
:1005E0009847021ED7DD082AA8BF0822694604F1F1
:1005F0008000B8470028C6DACDE769464046D047B4
:10060000206983685B6ABBB9658BE38BED1AADB279
:100610007DB1082D28BF082569462A464046C847AF
:10062000206983685B6923B12A4669469847021EA0
:10063000E3DA3846B047CAE798470028E4D1F8E73C
:1006400000000000000000000000000000000000AA
:10065000000000000846014B184700BF00000000E2
:1006600010B504460122074B11465430984704F157
:10067000140323600023C4E90133E36040232361B2
:10068000204610BD000000002DE9F0414FF00008A9
:100690004FF47A770D4C0E4B0E4E0F4D04F11400B3
:1006A0002361C4E901872660A84704F180000B4C50
:1006B000A8470B4B04F11400C4E9018726602361AD
:1006C000A84704F18000A847BDE8F08100000000C1
:1006D0000000000008000000000000000000000012
:0406E0000000000016
:1006E400416C6C2072656C617973204F4E00416CD3
:1006F4006C2072656C617973204F4646000D0A00C8
:1007040053797374656D204865617020656E643A31
:100714002025700A0053797374656D2048656170F3
:100724002073746172743A2025700A00536B6574E7
:10073400636820486561702073746172743A20257F
:10074400702C2073697A652025700A006D61696ECA
:10075400000000000000000007000000000000008E
:10076400060000000000000003000000000000007C
:1007740000000000000000000C0000000000000069
:100784000B00000000000000010000000000000059
:10079400020000000000000004000000000000004F
:1007A4000800000000000000090000000000000034
:1007B4000F000000000000000E0000000000000018
:1007C4000D00000000000000040000000000000014
:1007D400050000000000000006000000000000000A
:1007E40007000000000000000100000000000000FD
:1007F40000000000000000000B00000000000000EA
:100804000A000000000000000200000000000000D8
:1008140003000000000000000100000000000000D0
:1008240006000000000000000200000000000000BC
:1008340007000000000000000200000000000000AB
:100844000800000000000000030000000000000099
:100854000900000000000000050000000000000086
:10086400040000000000000006000000000000007A
:100874000400000000000000070000000000000069
:100884000600000000000000080000000000000056
:1008940007000000000000000E000000000000003F
:1008A40009000000000000000F000000000000002C
:1008B400050000000000000003000000000000002C
:1008C400080000000000000000000000000000001C
:1008D400080000000000000001000000000000000B
:1008E4000A000000000000000A00000000000000F0
:1008F4000B000000000000000C00000000000000DD
:100904000D000000000000000E00000000000000C8
:100914000F000000000000000000000000000000C4
:1009240001000000000000000200000000000000C0
:1009340003000000000000000400000000000000AC
:100944000500000000000000060000000000000098
:100954000700000000000000080000000000000084
:1009640009000000000000000A0000000000000070
:100974000D00000000000000020000000000000064
:100984000300000000000000000000000000000060
:100994000000000000000000000000000000000053
:1009A4000000000000000000000000000000000043
:0809B40000000000000000003B
:1009BC000C0000000800000007000000040000000C
:080BA4006C00000000000000DD
:040BAC000000000045
:04000003000001599F
:00000001FF
