:10000000704770477047704738B5054B9847054BA8
:100010009847054B9847054D054CA847A047FCE776
:1000200000000000000000000000000000000000D0
:10003000000000002DE9F04F154C164E164FDFF86A
:100040005C8089B02546B54204F1300402D309B082
:10005000BDE8F08F14ED027B54E90C0154E90A234A
:1000600054E908CE54E9069A54F810BC8DED067B8D
:10007000CDE903ABCDE901E9CDF800C0B84754F8AC
:10008000300C54F80C1CC04754F8303C5D65D9E77F
:100090000000000000000000000000000000000060
:1000A00053797374656D204865617020656E643A9C
:1000B0002025700A0053797374656D20486561705E
:1000C0002073746172743A2025700A00536B657452
:1000D000636820486561702073746172743A2025EA
:1000E000702C2073697A652025700A006D61696E35
:0100F000000F
:0800F4004C00000000000000B8
:0400000300000009F0
:00000001FF
